{
	"infosec/Denial of service/king.sol": {
		"KingOfEther": {
			"abi": [
				{
					"inputs": [],
					"name": "balance",
					"outputs": [
						{
							"internalType": "uint256",
							"name": "",
							"type": "uint256"
						}
					],
					"stateMutability": "view",
					"type": "function"
				},
				{
					"inputs": [],
					"name": "claimThrone",
					"outputs": [],
					"stateMutability": "payable",
					"type": "function"
				},
				{
					"inputs": [],
					"name": "king",
					"outputs": [
						{
							"internalType": "address",
							"name": "",
							"type": "address"
						}
					],
					"stateMutability": "view",
					"type": "function"
				}
			],
			"devdoc": {
				"kind": "dev",
				"methods": {},
				"version": 1
			},
			"evm": {
				"assembly": "    /* \"infosec/Denial of service/king.sol\":26:390  contract KingOfEther {... */\n  mstore(0x40, 0x80)\n  callvalue\n  dup1\n  iszero\n  tag_1\n  jumpi\n  0x00\n  dup1\n  revert\ntag_1:\n  pop\n  dataSize(sub_0)\n  dup1\n  dataOffset(sub_0)\n  0x00\n  codecopy\n  0x00\n  return\nstop\n\nsub_0: assembly {\n        /* \"infosec/Denial of service/king.sol\":26:390  contract KingOfEther {... */\n      mstore(0x40, 0x80)\n      jumpi(tag_1, lt(calldatasize, 0x04))\n      shr(0xe0, calldataload(0x00))\n      dup1\n      0x69deb7b7\n      eq\n      tag_2\n      jumpi\n      dup1\n      0xb69ef8a8\n      eq\n      tag_3\n      jumpi\n      dup1\n      0xcc181ca8\n      eq\n      tag_4\n      jumpi\n    tag_1:\n      0x00\n      dup1\n      revert\n        /* \"infosec/Denial of service/king.sol\":104:388  function claimThrone() external payable {... */\n    tag_2:\n      tag_5\n      tag_6\n      jump\t// in\n    tag_5:\n      stop\n        /* \"infosec/Denial of service/king.sol\":78:97  uint public balance */\n    tag_3:\n      callvalue\n      dup1\n      iszero\n      tag_7\n      jumpi\n      0x00\n      dup1\n      revert\n    tag_7:\n      pop\n      tag_8\n      tag_9\n      jump\t// in\n    tag_8:\n      mload(0x40)\n      tag_10\n      swap2\n      swap1\n      tag_11\n      jump\t// in\n    tag_10:\n      mload(0x40)\n      dup1\n      swap2\n      sub\n      swap1\n      return\n        /* \"infosec/Denial of service/king.sol\":53:72  address public king */\n    tag_4:\n      callvalue\n      dup1\n      iszero\n      tag_12\n      jumpi\n      0x00\n      dup1\n      revert\n    tag_12:\n      pop\n      tag_13\n      tag_14\n      jump\t// in\n    tag_13:\n      mload(0x40)\n      tag_15\n      swap2\n      swap1\n      tag_16\n      jump\t// in\n    tag_15:\n      mload(0x40)\n      dup1\n      swap2\n      sub\n      swap1\n      return\n        /* \"infosec/Denial of service/king.sol\":104:388  function claimThrone() external payable {... */\n    tag_6:\n        /* \"infosec/Denial of service/king.sol\":174:181  balance */\n      sload(0x01)\n        /* \"infosec/Denial of service/king.sol\":162:171  msg.value */\n      callvalue\n        /* \"infosec/Denial of service/king.sol\":162:181  msg.value > balance */\n      gt\n        /* \"infosec/Denial of service/king.sol\":154:221  require(msg.value > balance, \"Need to pay more to become the king\") */\n      tag_18\n      jumpi\n      mload(0x40)\n      0x08c379a000000000000000000000000000000000000000000000000000000000\n      dup2\n      mstore\n      0x04\n      add\n      tag_19\n      swap1\n      tag_20\n      jump\t// in\n    tag_19:\n      mload(0x40)\n      dup1\n      swap2\n      sub\n      swap1\n      revert\n    tag_18:\n        /* \"infosec/Denial of service/king.sol\":233:242  bool sent */\n      0x00\n        /* \"infosec/Denial of service/king.sol\":248:252  king */\n      dup1\n      0x00\n      swap1\n      sload\n      swap1\n      0x0100\n      exp\n      swap1\n      div\n      0xffffffffffffffffffffffffffffffffffffffff\n      and\n        /* \"infosec/Denial of service/king.sol\":248:257  king.call */\n      0xffffffffffffffffffffffffffffffffffffffff\n      and\n        /* \"infosec/Denial of service/king.sol\":265:272  balance */\n      sload(0x01)\n        /* \"infosec/Denial of service/king.sol\":248:277  king.call{value: balance}(\"\") */\n      mload(0x40)\n      tag_21\n      swap1\n      tag_22\n      jump\t// in\n    tag_21:\n      0x00\n      mload(0x40)\n      dup1\n      dup4\n      sub\n      dup2\n      dup6\n      dup8\n      gas\n      call\n      swap3\n      pop\n      pop\n      pop\n      returndatasize\n      dup1\n      0x00\n      dup2\n      eq\n      tag_25\n      jumpi\n      mload(0x40)\n      swap2\n      pop\n      and(add(returndatasize, 0x3f), not(0x1f))\n      dup3\n      add\n      0x40\n      mstore\n      returndatasize\n      dup3\n      mstore\n      returndatasize\n      0x00\n      0x20\n      dup5\n      add\n      returndatacopy\n      jump(tag_24)\n    tag_25:\n      0x60\n      swap2\n      pop\n    tag_24:\n      pop\n        /* \"infosec/Denial of service/king.sol\":232:277  (bool sent, ) = king.call{value: balance}(\"\") */\n      pop\n      swap1\n      pop\n        /* \"infosec/Denial of service/king.sol\":295:299  sent */\n      dup1\n        /* \"infosec/Denial of service/king.sol\":287:324  require(sent, \"Failed to send Ether\") */\n      tag_26\n      jumpi\n      mload(0x40)\n      0x08c379a000000000000000000000000000000000000000000000000000000000\n      dup2\n      mstore\n      0x04\n      add\n      tag_27\n      swap1\n      tag_28\n      jump\t// in\n    tag_27:\n      mload(0x40)\n      dup1\n      swap2\n      sub\n      swap1\n      revert\n    tag_26:\n        /* \"infosec/Denial of service/king.sol\":345:354  msg.value */\n      callvalue\n        /* \"infosec/Denial of service/king.sol\":335:342  balance */\n      0x01\n        /* \"infosec/Denial of service/king.sol\":335:354  balance = msg.value */\n      dup2\n      swap1\n      sstore\n      pop\n        /* \"infosec/Denial of service/king.sol\":371:381  msg.sender */\n      caller\n        /* \"infosec/Denial of service/king.sol\":364:368  king */\n      0x00\n      dup1\n        /* \"infosec/Denial of service/king.sol\":364:381  king = msg.sender */\n      0x0100\n      exp\n      dup2\n      sload\n      dup2\n      0xffffffffffffffffffffffffffffffffffffffff\n      mul\n      not\n      and\n      swap1\n      dup4\n      0xffffffffffffffffffffffffffffffffffffffff\n      and\n      mul\n      or\n      swap1\n      sstore\n      pop\n        /* \"infosec/Denial of service/king.sol\":144:388  {... */\n      pop\n        /* \"infosec/Denial of service/king.sol\":104:388  function claimThrone() external payable {... */\n      jump\t// out\n        /* \"infosec/Denial of service/king.sol\":78:97  uint public balance */\n    tag_9:\n      sload(0x01)\n      dup2\n      jump\t// out\n        /* \"infosec/Denial of service/king.sol\":53:72  address public king */\n    tag_14:\n      0x00\n      dup1\n      sload\n      swap1\n      0x0100\n      exp\n      swap1\n      div\n      0xffffffffffffffffffffffffffffffffffffffff\n      and\n      dup2\n      jump\t// out\n        /* \"#utility.yul\":7:84   */\n    tag_29:\n        /* \"#utility.yul\":44:51   */\n      0x00\n        /* \"#utility.yul\":73:78   */\n      dup2\n        /* \"#utility.yul\":62:78   */\n      swap1\n      pop\n        /* \"#utility.yul\":7:84   */\n      swap2\n      swap1\n      pop\n      jump\t// out\n        /* \"#utility.yul\":90:208   */\n    tag_30:\n        /* \"#utility.yul\":177:201   */\n      tag_45\n        /* \"#utility.yul\":195:200   */\n      dup2\n        /* \"#utility.yul\":177:201   */\n      tag_29\n      jump\t// in\n    tag_45:\n        /* \"#utility.yul\":172:175   */\n      dup3\n        /* \"#utility.yul\":165:202   */\n      mstore\n        /* \"#utility.yul\":90:208   */\n      pop\n      pop\n      jump\t// out\n        /* \"#utility.yul\":214:436   */\n    tag_11:\n        /* \"#utility.yul\":307:311   */\n      0x00\n        /* \"#utility.yul\":345:347   */\n      0x20\n        /* \"#utility.yul\":334:343   */\n      dup3\n        /* \"#utility.yul\":330:348   */\n      add\n        /* \"#utility.yul\":322:348   */\n      swap1\n      pop\n        /* \"#utility.yul\":358:429   */\n      tag_47\n        /* \"#utility.yul\":426:427   */\n      0x00\n        /* \"#utility.yul\":415:424   */\n      dup4\n        /* \"#utility.yul\":411:428   */\n      add\n        /* \"#utility.yul\":402:408   */\n      dup5\n        /* \"#utility.yul\":358:429   */\n      tag_30\n      jump\t// in\n    tag_47:\n        /* \"#utility.yul\":214:436   */\n      swap3\n      swap2\n      pop\n      pop\n      jump\t// out\n        /* \"#utility.yul\":442:568   */\n    tag_31:\n        /* \"#utility.yul\":479:486   */\n      0x00\n        /* \"#utility.yul\":519:561   */\n      0xffffffffffffffffffffffffffffffffffffffff\n        /* \"#utility.yul\":512:517   */\n      dup3\n        /* \"#utility.yul\":508:562   */\n      and\n        /* \"#utility.yul\":497:562   */\n      swap1\n      pop\n        /* \"#utility.yul\":442:568   */\n      swap2\n      swap1\n      pop\n      jump\t// out\n        /* \"#utility.yul\":574:670   */\n    tag_32:\n        /* \"#utility.yul\":611:618   */\n      0x00\n        /* \"#utility.yul\":640:664   */\n      tag_50\n        /* \"#utility.yul\":658:663   */\n      dup3\n        /* \"#utility.yul\":640:664   */\n      tag_31\n      jump\t// in\n    tag_50:\n        /* \"#utility.yul\":629:664   */\n      swap1\n      pop\n        /* \"#utility.yul\":574:670   */\n      swap2\n      swap1\n      pop\n      jump\t// out\n        /* \"#utility.yul\":676:794   */\n    tag_33:\n        /* \"#utility.yul\":763:787   */\n      tag_52\n        /* \"#utility.yul\":781:786   */\n      dup2\n        /* \"#utility.yul\":763:787   */\n      tag_32\n      jump\t// in\n    tag_52:\n        /* \"#utility.yul\":758:761   */\n      dup3\n        /* \"#utility.yul\":751:788   */\n      mstore\n        /* \"#utility.yul\":676:794   */\n      pop\n      pop\n      jump\t// out\n        /* \"#utility.yul\":800:1022   */\n    tag_16:\n        /* \"#utility.yul\":893:897   */\n      0x00\n        /* \"#utility.yul\":931:933   */\n      0x20\n        /* \"#utility.yul\":920:929   */\n      dup3\n        /* \"#utility.yul\":916:934   */\n      add\n        /* \"#utility.yul\":908:934   */\n      swap1\n      pop\n        /* \"#utility.yul\":944:1015   */\n      tag_54\n        /* \"#utility.yul\":1012:1013   */\n      0x00\n        /* \"#utility.yul\":1001:1010   */\n      dup4\n        /* \"#utility.yul\":997:1014   */\n      add\n        /* \"#utility.yul\":988:994   */\n      dup5\n        /* \"#utility.yul\":944:1015   */\n      tag_33\n      jump\t// in\n    tag_54:\n        /* \"#utility.yul\":800:1022   */\n      swap3\n      swap2\n      pop\n      pop\n      jump\t// out\n        /* \"#utility.yul\":1028:1197   */\n    tag_34:\n        /* \"#utility.yul\":1112:1123   */\n      0x00\n        /* \"#utility.yul\":1146:1152   */\n      dup3\n        /* \"#utility.yul\":1141:1144   */\n      dup3\n        /* \"#utility.yul\":1134:1153   */\n      mstore\n        /* \"#utility.yul\":1186:1190   */\n      0x20\n        /* \"#utility.yul\":1181:1184   */\n      dup3\n        /* \"#utility.yul\":1177:1191   */\n      add\n        /* \"#utility.yul\":1162:1191   */\n      swap1\n      pop\n        /* \"#utility.yul\":1028:1197   */\n      swap3\n      swap2\n      pop\n      pop\n      jump\t// out\n        /* \"#utility.yul\":1203:1425   */\n    tag_35:\n        /* \"#utility.yul\":1343:1377   */\n      0x4e65656420746f20706179206d6f726520746f206265636f6d6520746865206b\n        /* \"#utility.yul\":1339:1340   */\n      0x00\n        /* \"#utility.yul\":1331:1337   */\n      dup3\n        /* \"#utility.yul\":1327:1341   */\n      add\n        /* \"#utility.yul\":1320:1378   */\n      mstore\n        /* \"#utility.yul\":1412:1417   */\n      0x696e670000000000000000000000000000000000000000000000000000000000\n        /* \"#utility.yul\":1407:1409   */\n      0x20\n        /* \"#utility.yul\":1399:1405   */\n      dup3\n        /* \"#utility.yul\":1395:1410   */\n      add\n        /* \"#utility.yul\":1388:1418   */\n      mstore\n        /* \"#utility.yul\":1203:1425   */\n      pop\n      jump\t// out\n        /* \"#utility.yul\":1431:1797   */\n    tag_36:\n        /* \"#utility.yul\":1573:1576   */\n      0x00\n        /* \"#utility.yul\":1594:1661   */\n      tag_58\n        /* \"#utility.yul\":1658:1660   */\n      0x23\n        /* \"#utility.yul\":1653:1656   */\n      dup4\n        /* \"#utility.yul\":1594:1661   */\n      tag_34\n      jump\t// in\n    tag_58:\n        /* \"#utility.yul\":1587:1661   */\n      swap2\n      pop\n        /* \"#utility.yul\":1670:1763   */\n      tag_59\n        /* \"#utility.yul\":1759:1762   */\n      dup3\n        /* \"#utility.yul\":1670:1763   */\n      tag_35\n      jump\t// in\n    tag_59:\n        /* \"#utility.yul\":1788:1790   */\n      0x40\n        /* \"#utility.yul\":1783:1786   */\n      dup3\n        /* \"#utility.yul\":1779:1791   */\n      add\n        /* \"#utility.yul\":1772:1791   */\n      swap1\n      pop\n        /* \"#utility.yul\":1431:1797   */\n      swap2\n      swap1\n      pop\n      jump\t// out\n        /* \"#utility.yul\":1803:2222   */\n    tag_20:\n        /* \"#utility.yul\":1969:1973   */\n      0x00\n        /* \"#utility.yul\":2007:2009   */\n      0x20\n        /* \"#utility.yul\":1996:2005   */\n      dup3\n        /* \"#utility.yul\":1992:2010   */\n      add\n        /* \"#utility.yul\":1984:2010   */\n      swap1\n      pop\n        /* \"#utility.yul\":2056:2065   */\n      dup2\n        /* \"#utility.yul\":2050:2054   */\n      dup2\n        /* \"#utility.yul\":2046:2066   */\n      sub\n        /* \"#utility.yul\":2042:2043   */\n      0x00\n        /* \"#utility.yul\":2031:2040   */\n      dup4\n        /* \"#utility.yul\":2027:2044   */\n      add\n        /* \"#utility.yul\":2020:2067   */\n      mstore\n        /* \"#utility.yul\":2084:2215   */\n      tag_61\n        /* \"#utility.yul\":2210:2214   */\n      dup2\n        /* \"#utility.yul\":2084:2215   */\n      tag_36\n      jump\t// in\n    tag_61:\n        /* \"#utility.yul\":2076:2215   */\n      swap1\n      pop\n        /* \"#utility.yul\":1803:2222   */\n      swap2\n      swap1\n      pop\n      jump\t// out\n        /* \"#utility.yul\":2228:2375   */\n    tag_37:\n        /* \"#utility.yul\":2329:2340   */\n      0x00\n        /* \"#utility.yul\":2366:2369   */\n      dup2\n        /* \"#utility.yul\":2351:2369   */\n      swap1\n      pop\n        /* \"#utility.yul\":2228:2375   */\n      swap3\n      swap2\n      pop\n      pop\n      jump\t// out\n        /* \"#utility.yul\":2381:2495   */\n    tag_38:\n      pop\n      jump\t// out\n        /* \"#utility.yul\":2501:2899   */\n    tag_39:\n        /* \"#utility.yul\":2660:2663   */\n      0x00\n        /* \"#utility.yul\":2681:2764   */\n      tag_65\n        /* \"#utility.yul\":2762:2763   */\n      0x00\n        /* \"#utility.yul\":2757:2760   */\n      dup4\n        /* \"#utility.yul\":2681:2764   */\n      tag_37\n      jump\t// in\n    tag_65:\n        /* \"#utility.yul\":2674:2764   */\n      swap2\n      pop\n        /* \"#utility.yul\":2773:2866   */\n      tag_66\n        /* \"#utility.yul\":2862:2865   */\n      dup3\n        /* \"#utility.yul\":2773:2866   */\n      tag_38\n      jump\t// in\n    tag_66:\n        /* \"#utility.yul\":2891:2892   */\n      0x00\n        /* \"#utility.yul\":2886:2889   */\n      dup3\n        /* \"#utility.yul\":2882:2893   */\n      add\n        /* \"#utility.yul\":2875:2893   */\n      swap1\n      pop\n        /* \"#utility.yul\":2501:2899   */\n      swap2\n      swap1\n      pop\n      jump\t// out\n        /* \"#utility.yul\":2905:3284   */\n    tag_22:\n        /* \"#utility.yul\":3089:3092   */\n      0x00\n        /* \"#utility.yul\":3111:3258   */\n      tag_68\n        /* \"#utility.yul\":3254:3257   */\n      dup3\n        /* \"#utility.yul\":3111:3258   */\n      tag_39\n      jump\t// in\n    tag_68:\n        /* \"#utility.yul\":3104:3258   */\n      swap2\n      pop\n        /* \"#utility.yul\":3275:3278   */\n      dup2\n        /* \"#utility.yul\":3268:3278   */\n      swap1\n      pop\n        /* \"#utility.yul\":2905:3284   */\n      swap2\n      swap1\n      pop\n      jump\t// out\n        /* \"#utility.yul\":3290:3460   */\n    tag_40:\n        /* \"#utility.yul\":3430:3452   */\n      0x4661696c656420746f2073656e64204574686572000000000000000000000000\n        /* \"#utility.yul\":3426:3427   */\n      0x00\n        /* \"#utility.yul\":3418:3424   */\n      dup3\n        /* \"#utility.yul\":3414:3428   */\n      add\n        /* \"#utility.yul\":3407:3453   */\n      mstore\n        /* \"#utility.yul\":3290:3460   */\n      pop\n      jump\t// out\n        /* \"#utility.yul\":3466:3832   */\n    tag_41:\n        /* \"#utility.yul\":3608:3611   */\n      0x00\n        /* \"#utility.yul\":3629:3696   */\n      tag_71\n        /* \"#utility.yul\":3693:3695   */\n      0x14\n        /* \"#utility.yul\":3688:3691   */\n      dup4\n        /* \"#utility.yul\":3629:3696   */\n      tag_34\n      jump\t// in\n    tag_71:\n        /* \"#utility.yul\":3622:3696   */\n      swap2\n      pop\n        /* \"#utility.yul\":3705:3798   */\n      tag_72\n        /* \"#utility.yul\":3794:3797   */\n      dup3\n        /* \"#utility.yul\":3705:3798   */\n      tag_40\n      jump\t// in\n    tag_72:\n        /* \"#utility.yul\":3823:3825   */\n      0x20\n        /* \"#utility.yul\":3818:3821   */\n      dup3\n        /* \"#utility.yul\":3814:3826   */\n      add\n        /* \"#utility.yul\":3807:3826   */\n      swap1\n      pop\n        /* \"#utility.yul\":3466:3832   */\n      swap2\n      swap1\n      pop\n      jump\t// out\n        /* \"#utility.yul\":3838:4257   */\n    tag_28:\n        /* \"#utility.yul\":4004:4008   */\n      0x00\n        /* \"#utility.yul\":4042:4044   */\n      0x20\n        /* \"#utility.yul\":4031:4040   */\n      dup3\n        /* \"#utility.yul\":4027:4045   */\n      add\n        /* \"#utility.yul\":4019:4045   */\n      swap1\n      pop\n        /* \"#utility.yul\":4091:4100   */\n      dup2\n        /* \"#utility.yul\":4085:4089   */\n      dup2\n        /* \"#utility.yul\":4081:4101   */\n      sub\n        /* \"#utility.yul\":4077:4078   */\n      0x00\n        /* \"#utility.yul\":4066:4075   */\n      dup4\n        /* \"#utility.yul\":4062:4079   */\n      add\n        /* \"#utility.yul\":4055:4102   */\n      mstore\n        /* \"#utility.yul\":4119:4250   */\n      tag_74\n        /* \"#utility.yul\":4245:4249   */\n      dup2\n        /* \"#utility.yul\":4119:4250   */\n      tag_41\n      jump\t// in\n    tag_74:\n        /* \"#utility.yul\":4111:4250   */\n      swap1\n      pop\n        /* \"#utility.yul\":3838:4257   */\n      swap2\n      swap1\n      pop\n      jump\t// out\n\n    auxdata: 0xa264697066735822122060d87f7a783d315ee83e33da41c975a373770dcaa8d42170554783cbd338ab1e64736f6c634300080d0033\n}\n",
				"bytecode": {
					"linkReferences": {},
					"object": "608060405234801561001057600080fd5b5061043b806100206000396000f3fe6080604052600436106100345760003560e01c806369deb7b714610039578063b69ef8a814610043578063cc181ca81461006e575b600080fd5b610041610099565b005b34801561004f57600080fd5b506100586101f6565b6040516100659190610239565b60405180910390f35b34801561007a57600080fd5b506100836101fc565b6040516100909190610295565b60405180910390f35b60015434116100dd576040517f08c379a00000000000000000000000000000000000000000000000000000000081526004016100d490610333565b60405180910390fd5b60008060009054906101000a900473ffffffffffffffffffffffffffffffffffffffff1673ffffffffffffffffffffffffffffffffffffffff1660015460405161012690610384565b60006040518083038185875af1925050503d8060008114610163576040519150601f19603f3d011682016040523d82523d6000602084013e610168565b606091505b50509050806101ac576040517f08c379a00000000000000000000000000000000000000000000000000000000081526004016101a3906103e5565b60405180910390fd5b34600181905550336000806101000a81548173ffffffffffffffffffffffffffffffffffffffff021916908373ffffffffffffffffffffffffffffffffffffffff16021790555050565b60015481565b60008054906101000a900473ffffffffffffffffffffffffffffffffffffffff1681565b6000819050919050565b61023381610220565b82525050565b600060208201905061024e600083018461022a565b92915050565b600073ffffffffffffffffffffffffffffffffffffffff82169050919050565b600061027f82610254565b9050919050565b61028f81610274565b82525050565b60006020820190506102aa6000830184610286565b92915050565b600082825260208201905092915050565b7f4e65656420746f20706179206d6f726520746f206265636f6d6520746865206b60008201527f696e670000000000000000000000000000000000000000000000000000000000602082015250565b600061031d6023836102b0565b9150610328826102c1565b604082019050919050565b6000602082019050818103600083015261034c81610310565b9050919050565b600081905092915050565b50565b600061036e600083610353565b91506103798261035e565b600082019050919050565b600061038f82610361565b9150819050919050565b7f4661696c656420746f2073656e64204574686572000000000000000000000000600082015250565b60006103cf6014836102b0565b91506103da82610399565b602082019050919050565b600060208201905081810360008301526103fe816103c2565b905091905056fea264697066735822122060d87f7a783d315ee83e33da41c975a373770dcaa8d42170554783cbd338ab1e64736f6c634300080d0033",
					"opcodes": "PUSH1 0x80 PUSH1 0x40 MSTORE CALLVALUE DUP1 ISZERO PUSH2 0x10 JUMPI PUSH1 0x0 DUP1 REVERT JUMPDEST POP PUSH2 0x43B DUP1 PUSH2 0x20 PUSH1 0x0 CODECOPY PUSH1 0x0 RETURN INVALID PUSH1 0x80 PUSH1 0x40 MSTORE PUSH1 0x4 CALLDATASIZE LT PUSH2 0x34 JUMPI PUSH1 0x0 CALLDATALOAD PUSH1 0xE0 SHR DUP1 PUSH4 0x69DEB7B7 EQ PUSH2 0x39 JUMPI DUP1 PUSH4 0xB69EF8A8 EQ PUSH2 0x43 JUMPI DUP1 PUSH4 0xCC181CA8 EQ PUSH2 0x6E JUMPI JUMPDEST PUSH1 0x0 DUP1 REVERT JUMPDEST PUSH2 0x41 PUSH2 0x99 JUMP JUMPDEST STOP JUMPDEST CALLVALUE DUP1 ISZERO PUSH2 0x4F JUMPI PUSH1 0x0 DUP1 REVERT JUMPDEST POP PUSH2 0x58 PUSH2 0x1F6 JUMP JUMPDEST PUSH1 0x40 MLOAD PUSH2 0x65 SWAP2 SWAP1 PUSH2 0x239 JUMP JUMPDEST PUSH1 0x40 MLOAD DUP1 SWAP2 SUB SWAP1 RETURN JUMPDEST CALLVALUE DUP1 ISZERO PUSH2 0x7A JUMPI PUSH1 0x0 DUP1 REVERT JUMPDEST POP PUSH2 0x83 PUSH2 0x1FC JUMP JUMPDEST PUSH1 0x40 MLOAD PUSH2 0x90 SWAP2 SWAP1 PUSH2 0x295 JUMP JUMPDEST PUSH1 0x40 MLOAD DUP1 SWAP2 SUB SWAP1 RETURN JUMPDEST PUSH1 0x1 SLOAD CALLVALUE GT PUSH2 0xDD JUMPI PUSH1 0x40 MLOAD PUSH32 0x8C379A000000000000000000000000000000000000000000000000000000000 DUP2 MSTORE PUSH1 0x4 ADD PUSH2 0xD4 SWAP1 PUSH2 0x333 JUMP JUMPDEST PUSH1 0x40 MLOAD DUP1 SWAP2 SUB SWAP1 REVERT JUMPDEST PUSH1 0x0 DUP1 PUSH1 0x0 SWAP1 SLOAD SWAP1 PUSH2 0x100 EXP SWAP1 DIV PUSH20 0xFFFFFFFFFFFFFFFFFFFFFFFFFFFFFFFFFFFFFFFF AND PUSH20 0xFFFFFFFFFFFFFFFFFFFFFFFFFFFFFFFFFFFFFFFF AND PUSH1 0x1 SLOAD PUSH1 0x40 MLOAD PUSH2 0x126 SWAP1 PUSH2 0x384 JUMP JUMPDEST PUSH1 0x0 PUSH1 0x40 MLOAD DUP1 DUP4 SUB DUP2 DUP6 DUP8 GAS CALL SWAP3 POP POP POP RETURNDATASIZE DUP1 PUSH1 0x0 DUP2 EQ PUSH2 0x163 JUMPI PUSH1 0x40 MLOAD SWAP2 POP PUSH1 0x1F NOT PUSH1 0x3F RETURNDATASIZE ADD AND DUP3 ADD PUSH1 0x40 MSTORE RETURNDATASIZE DUP3 MSTORE RETURNDATASIZE PUSH1 0x0 PUSH1 0x20 DUP5 ADD RETURNDATACOPY PUSH2 0x168 JUMP JUMPDEST PUSH1 0x60 SWAP2 POP JUMPDEST POP POP SWAP1 POP DUP1 PUSH2 0x1AC JUMPI PUSH1 0x40 MLOAD PUSH32 0x8C379A000000000000000000000000000000000000000000000000000000000 DUP2 MSTORE PUSH1 0x4 ADD PUSH2 0x1A3 SWAP1 PUSH2 0x3E5 JUMP JUMPDEST PUSH1 0x40 MLOAD DUP1 SWAP2 SUB SWAP1 REVERT JUMPDEST CALLVALUE PUSH1 0x1 DUP2 SWAP1 SSTORE POP CALLER PUSH1 0x0 DUP1 PUSH2 0x100 EXP DUP2 SLOAD DUP2 PUSH20 0xFFFFFFFFFFFFFFFFFFFFFFFFFFFFFFFFFFFFFFFF MUL NOT AND SWAP1 DUP4 PUSH20 0xFFFFFFFFFFFFFFFFFFFFFFFFFFFFFFFFFFFFFFFF AND MUL OR SWAP1 SSTORE POP POP JUMP JUMPDEST PUSH1 0x1 SLOAD DUP2 JUMP JUMPDEST PUSH1 0x0 DUP1 SLOAD SWAP1 PUSH2 0x100 EXP SWAP1 DIV PUSH20 0xFFFFFFFFFFFFFFFFFFFFFFFFFFFFFFFFFFFFFFFF AND DUP2 JUMP JUMPDEST PUSH1 0x0 DUP2 SWAP1 POP SWAP2 SWAP1 POP JUMP JUMPDEST PUSH2 0x233 DUP2 PUSH2 0x220 JUMP JUMPDEST DUP3 MSTORE POP POP JUMP JUMPDEST PUSH1 0x0 PUSH1 0x20 DUP3 ADD SWAP1 POP PUSH2 0x24E PUSH1 0x0 DUP4 ADD DUP5 PUSH2 0x22A JUMP JUMPDEST SWAP3 SWAP2 POP POP JUMP JUMPDEST PUSH1 0x0 PUSH20 0xFFFFFFFFFFFFFFFFFFFFFFFFFFFFFFFFFFFFFFFF DUP3 AND SWAP1 POP SWAP2 SWAP1 POP JUMP JUMPDEST PUSH1 0x0 PUSH2 0x27F DUP3 PUSH2 0x254 JUMP JUMPDEST SWAP1 POP SWAP2 SWAP1 POP JUMP JUMPDEST PUSH2 0x28F DUP2 PUSH2 0x274 JUMP JUMPDEST DUP3 MSTORE POP POP JUMP JUMPDEST PUSH1 0x0 PUSH1 0x20 DUP3 ADD SWAP1 POP PUSH2 0x2AA PUSH1 0x0 DUP4 ADD DUP5 PUSH2 0x286 JUMP JUMPDEST SWAP3 SWAP2 POP POP JUMP JUMPDEST PUSH1 0x0 DUP3 DUP3 MSTORE PUSH1 0x20 DUP3 ADD SWAP1 POP SWAP3 SWAP2 POP POP JUMP JUMPDEST PUSH32 0x4E65656420746F20706179206D6F726520746F206265636F6D6520746865206B PUSH1 0x0 DUP3 ADD MSTORE PUSH32 0x696E670000000000000000000000000000000000000000000000000000000000 PUSH1 0x20 DUP3 ADD MSTORE POP JUMP JUMPDEST PUSH1 0x0 PUSH2 0x31D PUSH1 0x23 DUP4 PUSH2 0x2B0 JUMP JUMPDEST SWAP2 POP PUSH2 0x328 DUP3 PUSH2 0x2C1 JUMP JUMPDEST PUSH1 0x40 DUP3 ADD SWAP1 POP SWAP2 SWAP1 POP JUMP JUMPDEST PUSH1 0x0 PUSH1 0x20 DUP3 ADD SWAP1 POP DUP2 DUP2 SUB PUSH1 0x0 DUP4 ADD MSTORE PUSH2 0x34C DUP2 PUSH2 0x310 JUMP JUMPDEST SWAP1 POP SWAP2 SWAP1 POP JUMP JUMPDEST PUSH1 0x0 DUP2 SWAP1 POP SWAP3 SWAP2 POP POP JUMP JUMPDEST POP JUMP JUMPDEST PUSH1 0x0 PUSH2 0x36E PUSH1 0x0 DUP4 PUSH2 0x353 JUMP JUMPDEST SWAP2 POP PUSH2 0x379 DUP3 PUSH2 0x35E JUMP JUMPDEST PUSH1 0x0 DUP3 ADD SWAP1 POP SWAP2 SWAP1 POP JUMP JUMPDEST PUSH1 0x0 PUSH2 0x38F DUP3 PUSH2 0x361 JUMP JUMPDEST SWAP2 POP DUP2 SWAP1 POP SWAP2 SWAP1 POP JUMP JUMPDEST PUSH32 0x4661696C656420746F2073656E64204574686572000000000000000000000000 PUSH1 0x0 DUP3 ADD MSTORE POP JUMP JUMPDEST PUSH1 0x0 PUSH2 0x3CF PUSH1 0x14 DUP4 PUSH2 0x2B0 JUMP JUMPDEST SWAP2 POP PUSH2 0x3DA DUP3 PUSH2 0x399 JUMP JUMPDEST PUSH1 0x20 DUP3 ADD SWAP1 POP SWAP2 SWAP1 POP JUMP JUMPDEST PUSH1 0x0 PUSH1 0x20 DUP3 ADD SWAP1 POP DUP2 DUP2 SUB PUSH1 0x0 DUP4 ADD MSTORE PUSH2 0x3FE DUP2 PUSH2 0x3C2 JUMP JUMPDEST SWAP1 POP SWAP2 SWAP1 POP JUMP INVALID LOG2 PUSH5 0x6970667358 0x22 SLT KECCAK256 PUSH1 0xD8 PUSH32 0x7A783D315EE83E33DA41C975A373770DCAA8D42170554783CBD338AB1E64736F PUSH13 0x634300080D0033000000000000 "
				},
				"gasEstimates": {
					"creation": {
						"codeDepositCost": "216600",
						"executionCost": "257",
						"totalCost": "216857"
					},
					"external": {
						"balance()": "2429",
						"claimThrone()": "infinite",
						"king()": "2533"
					}
				},
				"methodIdentifiers": {
					"balance()": "b69ef8a8",
					"claimThrone()": "69deb7b7",
					"king()": "cc181ca8"
				}
			},
			"storageLayout": {
				"storage": [
					{
						"astId": 3,
						"contract": "infosec/Denial of service/king.sol:KingOfEther",
						"label": "king",
						"offset": 0,
						"slot": "0",
						"type": "t_address"
					},
					{
						"astId": 5,
						"contract": "infosec/Denial of service/king.sol:KingOfEther",
						"label": "balance",
						"offset": 0,
						"slot": "1",
						"type": "t_uint256"
					}
				],
				"types": {
					"t_address": {
						"encoding": "inplace",
						"label": "address",
						"numberOfBytes": "20"
					},
					"t_uint256": {
						"encoding": "inplace",
						"label": "uint256",
						"numberOfBytes": "32"
					}
				}
			},
			"userdoc": {
				"kind": "user",
				"methods": {},
				"version": 1
			}
		}
	}
}