{
	"data": {
		"bytecode": {
			"linkReferences": {},
			"object": "608060405234801561001057600080fd5b5061011e806100206000396000f3fe6080604052348015600f57600080fd5b5060043610603c5760003560e01c8063b69ef8a8146041578063d732d955146060578063e8927fbc146068575b600080fd5b60476070565b604051808260ff16815260200191505060405180910390f35b60666081565b005b606e60b5565b005b60008054906101000a900460ff1681565b60008081819054906101000a900460ff16809291906001900391906101000a81548160ff021916908360ff16021790555050565b60008081819054906101000a900460ff168092919060010191906101000a81548160ff021916908360ff1602179055505056fea26469706673582212208431e8495b3ae059403e06344a3661126cc6119f4ed4116999e03846993a8c8b64736f6c63430007000033",
			"opcodes": "PUSH1 0x80 PUSH1 0x40 MSTORE CALLVALUE DUP1 ISZERO PUSH2 0x10 JUMPI PUSH1 0x0 DUP1 REVERT JUMPDEST POP PUSH2 0x11E DUP1 PUSH2 0x20 PUSH1 0x0 CODECOPY PUSH1 0x0 RETURN INVALID PUSH1 0x80 PUSH1 0x40 MSTORE CALLVALUE DUP1 ISZERO PUSH1 0xF JUMPI PUSH1 0x0 DUP1 REVERT JUMPDEST POP PUSH1 0x4 CALLDATASIZE LT PUSH1 0x3C JUMPI PUSH1 0x0 CALLDATALOAD PUSH1 0xE0 SHR DUP1 PUSH4 0xB69EF8A8 EQ PUSH1 0x41 JUMPI DUP1 PUSH4 0xD732D955 EQ PUSH1 0x60 JUMPI DUP1 PUSH4 0xE8927FBC EQ PUSH1 0x68 JUMPI JUMPDEST PUSH1 0x0 DUP1 REVERT JUMPDEST PUSH1 0x47 PUSH1 0x70 JUMP JUMPDEST PUSH1 0x40 MLOAD DUP1 DUP3 PUSH1 0xFF AND DUP2 MSTORE PUSH1 0x20 ADD SWAP2 POP POP PUSH1 0x40 MLOAD DUP1 SWAP2 SUB SWAP1 RETURN JUMPDEST PUSH1 0x66 PUSH1 0x81 JUMP JUMPDEST STOP JUMPDEST PUSH1 0x6E PUSH1 0xB5 JUMP JUMPDEST STOP JUMPDEST PUSH1 0x0 DUP1 SLOAD SWAP1 PUSH2 0x100 EXP SWAP1 DIV PUSH1 0xFF AND DUP2 JUMP JUMPDEST PUSH1 0x0 DUP1 DUP2 DUP2 SWAP1 SLOAD SWAP1 PUSH2 0x100 EXP SWAP1 DIV PUSH1 0xFF AND DUP1 SWAP3 SWAP2 SWAP1 PUSH1 0x1 SWAP1 SUB SWAP2 SWAP1 PUSH2 0x100 EXP DUP2 SLOAD DUP2 PUSH1 0xFF MUL NOT AND SWAP1 DUP4 PUSH1 0xFF AND MUL OR SWAP1 SSTORE POP POP JUMP JUMPDEST PUSH1 0x0 DUP1 DUP2 DUP2 SWAP1 SLOAD SWAP1 PUSH2 0x100 EXP SWAP1 DIV PUSH1 0xFF AND DUP1 SWAP3 SWAP2 SWAP1 PUSH1 0x1 ADD SWAP2 SWAP1 PUSH2 0x100 EXP DUP2 SLOAD DUP2 PUSH1 0xFF MUL NOT AND SWAP1 DUP4 PUSH1 0xFF AND MUL OR SWAP1 SSTORE POP POP JUMP INVALID LOG2 PUSH5 0x6970667358 0x22 SLT KECCAK256 DUP5 BALANCE 0xE8 0x49 JUMPDEST GASPRICE 0xE0 MSIZE BLOCKHASH RETURNDATACOPY MOD CALLVALUE 0x4A CALLDATASIZE PUSH2 0x126C 0xC6 GT SWAP16 0x4E 0xD4 GT PUSH10 0x99E03846993A8C8B6473 PUSH16 0x6C634300070000330000000000000000 "
		},
		"gasEstimates": {
			"creation": {
				"codeDepositCost": "57200",
				"executionCost": "105",
				"totalCost": "57305"
			},
			"external": {
				"balance()": "1022",
				"decrease()": "21876",
				"increase()": "21895"
			}
		},
		"methodIdentifiers": {
			"balance()": "b69ef8a8",
			"decrease()": "d732d955",
			"increase()": "e8927fbc"
		}
	},
	"abi": [
		{
			"inputs": [],
			"name": "balance",
			"outputs": [
				{
					"internalType": "uint8",
					"name": "",
					"type": "uint8"
				}
			],
			"stateMutability": "view",
			"type": "function"
		},
		{
			"inputs": [],
			"name": "decrease",
			"outputs": [],
			"stateMutability": "nonpayable",
			"type": "function"
		},
		{
			"inputs": [],
			"name": "increase",
			"outputs": [],
			"stateMutability": "nonpayable",
			"type": "function"
		}
	]
}